:020000040000FA
:0400000006EF00F017
:020004000000FA
:08000800FCEF00F0F26AF16A5E
:10001000D09E006A016A026A046A056A066A076A73
:100020000F6A0A0E156E166E140E036EFF0E106E1A
:10003000080E116E126E186A196A136A146A086A39
:10004000080E096E0A6E0B6E0C6E0D6E0E6E926AC5
:100050000F0EC16E806A73EC01F0936A93869388E9
:10006000818081828184070ED56E600ED76E600E0E
:10007000D66E780ECD6E000ECF6E000ECE6E41EFB6
:1000800000F0000E00621ED0000E016207D081B6A3
:1000900041EF00F0010E016E41EF00F081A641EF4B
:1000A00000F0000E016E010E006EF28A9D80F2904B
:1000B000F286F28CF28ED58E12C006F011C007F0D7
:1000C00041EF00F0010E00629EEF00F073EC01F0D2
:1000D000000E036270EF00F08CEC01F041EF00F0D5
:1000E00015EC05F09DEC01F01006000E106274EFA7
:1000F00000F0FF0E106E26EC05F0A4EC01F01006E7
:10010000000E10627FEF00F0FF0E106E7BEC02F02D
:1001100073EC01F0ABEC01F01006000E10628CEFF6
:1001200000F0FF0E106EB2EC01F01006000E10622F
:1001300095EF00F0FF0E106E41EF00F0020E00622E
:10014000D4EF00F0000E0362AAEF00F08CEC01F097
:1001500041EF00F021EC02F073EC01F09DEC01F0B6
:100160001006000E1062B0EF00F0FF0E106EA4EC4F
:1001700001F01006000E1062B9EF00F0FF0E106ED5
:10018000ABEC01F01006000E1062C2EF00F0FF0EA3
:10019000106EB2EC01F01006000E1062CBEF00F012
:1001A000FF0E106E41EF00F073EC01F09DEC01F0DA
:1001B0001006000E1062D8EF00F0FF0E106EA4ECD7
:1001C00001F01006000E1062E1EF00F0FF0E106E5D
:1001D000ABEC01F01006000E1062EAEF00F0FF0E2B
:1001E000106EB2EC01F01006000E1062F3EF00F09A
:1001F000FF0E106E41EF00F0F2A406EF01F0F29452
:10020000600ED76E600ED66E030611009EA03BEF07
:1002100001F09E900F2A010E006216EF01F0140EFD
:100220000F6211000F6AE5EC01F01100030E00628D
:1002300011000A0E0F6211000F6A000E19622EEFF4
:1002400001F0020E18622AEF01F058EC02F0010EE4
:10025000196E1100182A58EC02F01100000E1862F5
:1002600037EF01F058EC02F0000E196E110018067D
:1002700058EC02F01100F2A01100030E006242EFF0
:1002800001F0110081508A6EF290000E02624EEF72
:1002900001F081B81100010E026E110081A8110059
:1002A000000E026E010E006269EF01F0C5EC01F074
:1002B000080E116E020E006E09C004F00AC005F0AF
:1002C0000BC006F00CC007F0186A88EC01F08380C0
:1002D0001100C5EC01F0080E116E136A146A186A59
:1002E000010E006E1100956A836A12009580958256
:1002F00095849586836A12008190818281841200A0
:100300008180819281841200818081828194120097
:10031000818081828184120009C004F00AC005F046
:100320000BC006F00CC007F0030E006E186A196AC5
:10033000F29AF296BEEC01F01200808480968098CA
:10034000809A04C083FF1200809480868098809AEF
:1003500005C083FF1200809480968088809A06C032
:1003600083FF1200809480968098808A07C083FF64
:10037000120012C006F011C007F012000F6A000E42
:10038000CF6E000ECE6ECD801200CD900F6A000EA3
:10039000CF6E000ECE6E12000A0E156E166E15068A
:1003A000FEE11606FCE11200060E156E166E176EC3
:1003B0001506FEE11606FCE11706FAE11200040E2E
:1003C00014621200010E146E1200000E146E136EF1
:1003D00011C012F0080E116E082A010E0862F6EF25
:1003E00001F012C009F0C5EC01F01200020E086223
:1003F000FFEF01F012C00AF0C5EC01F01200030E8D
:10040000086208EF02F012C00BF0C5EC01F0120018
:10041000040E086211EF02F012C00CF0C5EC01F0FE
:100420001200050E08621AEF02F012C00DF0C5ECC2
:1004300001F0120012C00EF0C5EC01F08CEC01F0DE
:10044000120076EC01F07CEC01F083B03CEF02F09E
:10045000CCEC01F083B03CEF02F088EC01F083803B
:10046000D4EC01F0000E186238EF02F055EF02F004
:10047000180658EC02F0120084EC01F083B055EF3E
:1004800002F0CCEC01F083B055EF02F088EC01F003
:100490008380D4EC01F0020E186251EF02F055EFA8
:1004A00002F0182A58EC02F0120058EC02F0120088
:1004B000000E186265EF02F009C004F00AC005F0F2
:1004C0000BC006F00CC007F01200010E186272EFAC
:1004D00002F00AC004F00BC005F00CC006F00DC01D
:1004E00007F012000BC004F00CC005F00DC006F0C0
:1004F0000EC007F0120076EC01F080EC01F083B63C
:10050000BCEF02F0CCEC01F083B6BCEF02F088EC5B
:1005100001F08386D4EC01F0000E13629BEF02F031
:10052000020E136E010E146E6EEC04F0B9EC01F0C5
:10053000BEEC01F01200020E1362ADEF02F0C5EC4A
:1005400001F0020E136E142ADFEC01F06EEC04F0E1
:10055000B9EC01F0BEEC01F01200C5EC01F0E5ECE5
:1005600001F0020E136E010E146E6EEC04F0B9EC85
:1005700001F0BEEC01F0120083B4F9EF02F0CCEC14
:1005800001F083B4F9EF02F088EC01F08384D4EC3D
:1005900001F0000E1362D8EF02F0050E136E010E8B
:1005A000146E6EEC04F0B9EC01F0BEEC01F0120038
:1005B000050E1362EAEF02F0C5EC01F0050E136EB2
:1005C000142ADFEC01F06EEC04F0B9EC01F0BEECA3
:1005D00001F01200C5EC01F0E5EC01F0050E136E20
:1005E000010E146E6EEC04F0B9EC01F0BEEC01F0FB
:1005F000120083B236EF03F0CCEC01F083B236EF99
:1006000003F088EC01F08382D4EC01F0000E136259
:1006100015EF03F0080E136E010E146E6EEC04F06D
:10062000B9EC01F0BEEC01F01200080E136227EFE6
:1006300003F0C5EC01F0080E136E142ADFEC01F094
:100640006EEC04F0B9EC01F0BEEC01F01200C5EC68
:1006500001F0E5EC01F0080E136E010E146E6EEC65
:1006600004F0B9EC01F0BEEC01F0120084EC01F0F2
:1006700083B675EF03F0CCEC01F083B675EF03F0B1
:1006800088EC01F08386D4EC01F0000E136254EF85
:1006900003F0030E136E010E146E6EEC04F0B9EC51
:1006A00001F0BEEC01F01200030E136266EF03F0DE
:1006B000C5EC01F0030E136E142ADFEC01F06EECB2
:1006C00004F0B9EC01F0BEEC01F01200C5EC01F051
:1006D000E5EC01F0030E136E010E146E6EEC04F0E7
:1006E000B9EC01F0BEEC01F0120083B4B2EF03F0FC
:1006F000CCEC01F083B4B2EF03F088EC01F083841A
:10070000D4EC01F0000E136291EF03F0060E136EAD
:10071000010E146E6EEC04F0B9EC01F0BEEC01F0C9
:100720001200060E1362A3EF03F0C5EC01F0060EF3
:10073000136E142ADFEC01F06EEC04F0B9EC01F05A
:10074000BEEC01F01200C5EC01F0E5EC01F0060E84
:10075000136E010E146E6EEC04F0B9EC01F0BEECF9
:1007600001F0120083B2EFEF03F0CCEC01F083B2A2
:10077000EFEF03F088EC01F08382D4EC01F0000E7F
:100780001362CEEF03F0090E136E010E146E6EECC1
:1007900004F0B9EC01F0BEEC01F01200090E136296
:1007A000E0EF03F0C5EC01F0090E136E142ADFEC44
:1007B00001F06EEC04F0B9EC01F0BEEC01F01200B7
:1007C000C5EC01F0E5EC01F0090E136E010E146E9C
:1007D0006EEC04F0B9EC01F0BEEC01F012007CEC20
:1007E00001F083B42EEF04F0CCEC01F083B42EEFD3
:1007F00004F088EC01F08384D4EC01F0000E136265
:100800000DEF04F0040E136E010E146E6EEC04F086
:10081000B9EC01F0BEEC01F01200040E13621FEF00
:1008200004F0C5EC01F0040E136E142ADFEC01F0A5
:100830006EEC04F0B9EC01F0BEEC01F01200C5EC76
:1008400001F0E5EC01F0040E136E010E146E6EEC77
:1008500004F0B9EC01F0BEEC01F0120083B26BEFD2
:1008600004F0CCEC01F083B26BEF04F088EC01F003
:100870008382D4EC01F0000E13624AEF04F0070EFD
:10088000136E010E146E6EEC04F0B9EC01F0BEECC8
:1008900001F01200070E13625CEF04F0C5EC01F0EA
:1008A000070E136E142ADFEC01F06EEC04F0B9ECC5
:1008B00001F0BEEC01F01200C5EC01F0E5EC01F036
:1008C000070E136E010E146E6EEC04F0B9EC01F01D
:1008D000BEEC01F01200B9EC01F01200020E13623E
:1008E00083EF04F0010E146279EF04F05F0E116ED5
:1008F0001200020E146280EF04F07C0E116E1200E2
:10090000580E116E1200030E136298EF04F0010EE0
:1009100014628EEF04F05E0E116E1200020E14626D
:1009200095EF04F07B0E116E1200710E116E120025
:10093000040E1362ADEF04F0010E1462A3EF04F095
:100940006F0E116E1200020E1462AAEF04F0740E04
:10095000116E1200040E116E1200050E1362C2EF2A
:1009600004F0010E1462B8EF04F00E0E116E1200C6
:10097000020E1462BFEF04F0750E116E1200380EF5
:10098000116E1200060E1362D7EF04F0010E14620E
:10099000CDEF04F0550E116E1200020E1462D4EF6A
:1009A00004F0540E116E12005C0E116E1200070E50
:1009B0001362ECEF04F0010E1462E2EF04F0730E28
:1009C000116E1200020E1462E9EF04F0500E116E67
:1009D0001200640E116E1200080E136201EF05F092
:1009E000010E1462F7EF04F0780E116E1200020E81
:1009F0001462FEEF04F01C0E116E12002A0E116E2E
:100A00001200090E13621200010E14620BEF05F0C2
:100A10006E0E116E1200020E146212EF05F05B0EE4
:100A2000116E1200000E116E1200140E03621CEF04
:100A300005F05B0E046E1200090E036423EF05F04F
:100A4000060E046E12003F0E046E1200140E0362B6
:100A50002DEF05F03F0E056E1200130E036234EF0A
:100A600005F06F0E056E1200120E03623BEF05F0EB
:100A70007F0E056E1200110E036242EF05F0070EA5
:100A8000056E1200100E036249EF05F07D0E056E33
:100A900012000F0E036250EF05F06D0E056E12008E
:100AA0000E0E036257EF05F0660E056E12000D0E76
:100AB00003625EEF05F04F0E056E12000C0E03622E
:100AC00065EF05F05B0E056E12000B0E03626CEF16
:100AD00005F0060E056E12000A0E036273EF05F0B4
:100AE0003F0E056E1200090E03627AEF05F06F0EDD
:100AF000056E1200080E036281EF05F07F0E056E91
:100B00001200070E036288EF05F0070E056E120053
:100B1000060E03628FEF05F07D0E056E1200050EC6
:100B2000036296EF05F06D0E056E1200040E03626F
:100B30009DEF05F0660E056E1200030E0362A4EF32
:100B400005F04F0E056E1200020E0362ABEF05F0CA
:100B50005B0E056E1200010E0362B2EF05F0060E89
:0A0B6000056E12003F0E056E120034
:020000040030CA
:0100010006F8
:0100020018E5
:010003001EDE
:010005008179
:010006008079
:010008000FE8
:01000900C036
:01000A000FE6
:01000B00E014
:01000C000FE4
:01000D0040B2
:00000001FF
